S0190000726164617220756C747261736F6E69646F2E737265632D
S11300000C942A000C943F000C943F000C943F0085
S11300100C943F000C943F000C943F000C943F0060
S11300200C943F000C943F000C943F000C943F0050
S11300300C943F000C943F000C943F000C943F0040
S11300400C943F000C943F000C943F000C943F0030
S11300500C943F0011241FBECFE5D8E0DEBFCDBF16
S113006010E0A0E6B0E0E4E5FCE002C005900D92EB
S1130070A037B107D9F70E9441000C9428060C94CC
S11300800000CF93DF93CDB7DEB72C970FB6F8946B
S1130090DEBF0FBECDBF60E07BE480E090E00E9455
S11300A0CE011ABA8FE084BBC12CD12C760100E0BA
S11300B010E021C0C701B6010E94BC006B017C01A5
S11300C00E94CF029F938F937F936F9380E690E07B
S11300D09F938F93CE0101965C019F938F930E940F
S11300E03E03C5010E9404020F5F1F4F0FB6F89430
S11300F0DEBF0FBECDBF00311105E4F289E085BB40
S11301009FEF24E38CE0915020408040E1F700C051
S1130110000000E010E021C0C701B6010E944501C3
S11301206B017C010E94CF029F938F937F936F9307
S113013080E690E09F938F93CE0101965C019F939C
S11301408F930E943E03C5010E9404020F5F1F4F5C
S11301500FB6F894DEBF0FBECDBF00311105E4F237
S113016089E085BB9FEF24E38CE0915020408040E0
S1130170E1F700C000009BCF29E025BB20E030E080
S113018044E350E40E9412022FE738E341E0215097
S113019030404040E1F700C0000028E025BB20E0EB
S11301A030E044E350E40E9412022FE738E341E0D8
S11301B0215030404040E1F700C000002CE025BB56
S11301C020E030E044E350E40E9412022FE738E3D9
S11301D041E0215030404040E1F700C0000024E0FD
S11301E025BB20E030E044E350E40E9412022FE7F4
S11301F038E341E0215030404040E1F700C00000C6
S113020026E025BB20E030E044E350E40E941202E3
S11302102FE738E341E0215030404040E1F700C08F
S1130220000022E025BB20E030E044E350E40E94DB
S113023012022FE738E341E0215030404040E1F71B
S113024000C0000023E025BB20E030E044E350E49C
S11302500E9412022FE738E341E021503040404031
S1130260E1F700C0000021E025BB20E030E044E3DA
S113027050E40E9412022FE738E341E0215030405D
S11302804040E1F700C00000089529E025BB20E0CC
S113029030E044E350E40E9411022FE738E341E0E8
S11302A0215030404040E1F700C0000021E025BB70
S11302B020E030E044E350E40E9411022FE738E3E9
S11302C041E0215030404040E1F700C0000023E00D
S11302D025BB20E030E044E350E40E9411022FE704
S11302E038E341E0215030404040E1F700C00000D5
S11302F022E025BB20E030E044E350E40E941102F8
S11303002FE738E341E0215030404040E1F700C09E
S1130310000026E025BB20E030E044E350E40E94E6
S113032011022FE738E341E0215030404040E1F72B
S113033000C0000024E025BB20E030E044E350E4AA
S11303400E9411022FE738E341E021503040404041
S1130350E1F700C000002CE025BB20E030E044E3DE
S113036050E40E9411022FE738E341E0215030406D
S11303704040E1F700C0000028E025BB20E030E069
S113038044E350E40E9411022FE738E341E0215096
S113039030404040E1F700C00000089522E021BB56
S11303A012BA1BB82AB128612AB920B5266820BD23
S11303B0DC01CB01880F991FAA1FBB1F880F991F4F
S11303C0AA1FBB1F9C01AD01220F331F441F551FE1
S11303D0220F331F441F551F60E079E08DE390E046
S11303E00E941C038FEF820F89B9DA01C9010197BA
S11303F0A109B109892F9A2FAB2FBB2780BD08957E
S11304005D9BFECF8CB90895CF93DF93EC0103C0BD
S11304100E940002219688818111FACFDF91CF9149
S113042008955058BB27AA270E9429020C949502CC
S11304300E94870238F00E948E0220F039F49F3F18
S113044019F426F40C9484020EF4E095E7FB0C9462
S11304507E02E92F0E94A60258F3BA1762077307B7
S11304608407950720F079F4A6F50C94C8020EF4DD
S1130470E0950B2EBA2FA02D0B01B90190010C01B0
S1130480CA01A0011124FF27591B99F0593F50F4C8
S1130490503E68F11A16F040A22F232F342F442720
S11304A0585FF3CF469537952795A795F040539518
S11304B0C9F77EF41F16BA0B620B730B840BBAF0E8
S11304C09150A1F0FF0FBB1F661F771F881FC2F753
S11304D00EC0BA0F621F731F841F48F48795779567
S11304E06795B795F7959E3F08F0B0CF9395880F21
S11304F008F09927EE0F97958795089597F99F67C8
S113050080E870E060E008959FEF80EC0895002497
S11305100A941616170618060906089500240A9464
S113052012161306140605060895092E0394000CEA
S113053011F4882352F0BB0F40F4BF2B11F460FF79
S113054004C06F5F7F4F8F4F9F4F089557FD9058A2
S1130550440F551F59F05F3F71F04795880F97FB83
S1130560991F61F09F3F79F087950895121613063D
S11305701406551FF2CF4695F1DF08C0161617066C
S11305801806991FF1CF86957105610508940895A1
S1130590E894BB2766277727CB0197F908950E9433
S11305A0AE02E8F09E37E8F09639B8F49E3848F485
S11305B0672F782F8827985FF9CF86957795679569
S11305C093959539D0F3B62FB1706B0F711D811DC2
S11305D020F487957795679593950C94F3020C9482
S11305E00E030C94C902882371F4772321F09850E8
S11305F0872B762F07C0662311F499270DC09051DD
S1130600862B70E060E02AF09A95660F771F881FAA
S1130610DAF7880F9695879597F908959F3F31F0FB
S1130620915020F4879577956795B795880F911D1C
S11306309695879597F90895A1E21A2EAA1BBB1BDC
S1130640FD010DC0AA1FBB1FEE1FFF1FA217B3079A
S1130650E407F50720F0A21BB30BE40BF50B661FB0
S1130660771F881F991F1A9469F760957095809574
S113067090959B01AC01BD01CF010895AEE0B0E0BF
S1130680E4E4F3E00C94FF050D891E8986E08C8375
S11306901A8309838FEF9FE79E838D83AE01475EA4
S11306A05F4F6F89788DCE0101960E946003EF81C0
S11306B0F885E00FF11F10822E96E4E00C941B06DF
S11306C0ABE0B0E0E6E6F3E00C94F1056C017B01ED
S11306D08A01FC0117821682838181FFCCC1CE017D
S11306E001963C01F6019381F70193FD859193FFF7
S11306F081917F01882309F4BAC1853239F493FDCD
S1130700859193FF81917F01853229F4B60190E0B0
S11307100E945705E7CF912C212C312CFFE1F315D2
S1130720D8F08B3279F038F4803279F08332A1F446
S1130730232D20611DC08D3261F0803369F4232D97
S1130740216016C0832D8260382EE32DE4603E2E96
S11307502AC0F32DF8601DC037FC2DC020ED280FF2
S11307602A3040F08E32B9F436FC81C1232D206446
S1130770322E19C036FE06C08AE0989E200D112440
S1130780922E11C0EAE02E9E200D1124222EF32D6C
S1130790F0623F2E08C08C3621F4832D8068382EF9
S11307A002C0883641F4F70193FD859193FF81914E
S11307B07F018111B3CF982F9F7D9554933028F4F6
S11307C00C5F1F4F9FE399830DC0833631F083374D
S11307D071F0833509F059C021C0F8018081898303
S11307E00E5F1F4F88248394912C530113C028015A
S11307F0F2E04F0E511CF801A080B18036FE03C018
S1130800692D70E002C06FEF7FEFC5010E944C05B7
S11308104C018201F32DFF773F2E16C0280122E000
S1130820420E511CF801A080B18036FE03C0692D30
S113083070E002C06FEF7FEFC5010E9441054C01DB
S1130840F32DF0683F2E820133FC1BC0822D90E013
S113085088169906B0F4B60180E290E00E9457052C
S11308602A94F4CFF50137FC859137FE81915F011D
S1130870B60190E00E94570521102A9421E0821AC3
S113088091088114910471F7E8C0843611F0893617
S113089041F5F80137FE07C060817181828193813F
S11308A00C5F1F4F08C060817181072E000C880BFC
S11308B0990B0E5F1F4FF32DFF763F2E97FF09C054
S11308C090958095709561957F4F8F4F9F4FF068FD
S11308D03F2E2AE030E0A3010E949305882E86185B
S11308E045C0853731F4232D2F7EB22E2AE030E027
S11308F025C0932D997FB92E8F36C1F018F4883511
S113090079F0B5C0803719F0883721F0B0C0E92FED
S1130910E061BE2EB4FE0DC0FB2DF460BF2E09C0F5
S113092034FE0AC0292F2660B22E06C028E030E02B
S113093005C020E130E002C020E132E0F801B7FE5A
S113094007C060817181828193810C5F1F4F06C053
S11309506081718180E090E00E5F1F4FA3010E94CF
S11309609305882E8618FB2DFF773F2E36FE0DC08B
S1130970232D2E7FA22E891458F434FE0BC032FC92
S113098009C0832D8E7EA82E05C0B82CA32C03C0CD
S1130990B82C01C0B92CA4FE0FC0FE01E80DF11D56
S11309A08081803321F49A2D997EA92E09C0A2FE5C
S11309B006C0B394B39404C08A2D867809F0B39426
S11309C0A3FC11C0A0FE06C0B21488F4280C922C1B
S11309D09B180EC0B21460F4B60180E290E00E944D
S11309E05705B394F7CFB21418F42B1802C0982CFF
S11309F0212CA4FE10C0B60180E390E00E945705AC
S1130A00A2FE17C0A1FC03C088E790E002C088E5FD
S1130A1090E0B6010CC08A2D867859F0A1FE02C080
S1130A208BE201C080E2A7FC8DE2B60190E00E9457
S1130A305705891438F4B60180E390E00E94570505
S1130A409A94F7CF8A94F301E80DF11D8081B601E1
S1130A5090E00E9457058110F5CF222009F442CE80
S1130A60B60180E290E00E9457052A94F6CFF60181
S1130A708681978102C08FEF9FEF2B96E2E10C9461
S1130A800D06FC010590615070400110D8F7809567
S1130A9090958E0F9F1F0895FC0161507040019046
S1130AA00110D8F7809590958E0F9F1F08950F938E
S1130AB01F93CF93DF93FB01238121FD03C08FEFAD
S1130AC09FEF2CC022FF16C04681578124813581B7
S1130AD04217530744F4A081B1819D012F5F3F4F1A
S1130AE0318320838C93268137812F5F3F4F378357
S1130AF0268314C08B01EC01FB010084F185E02DF9
S1130B000995892BE1F6D80116968D919C9117973A
S1130B10019617969C938E931697CE01DF91CF91F1
S1130B201F910F910895FA01AA27283051F120311D
S1130B3081F1E8946F936E7F6E5F7F4F8F4F9F4F6D
S1130B40AF4FB1E03ED0B4E03CD0670F781F891FAF
S1130B509A1FA11D680F791F8A1F911DA11D6A0F7D
S1130B60711D811D911DA11D20D009F468943F9130
S1130B702AE0269F11243019305D3193DEF6CF012F
S1130B800895462F4770405D4193B3E00FD0C9F7F5
S1130B90F6CF462F4F70405D4A3318F0495D31FD62
S1130BA04052419302D0A9F7EACFB4E0A6959795B5
S1130BB0879577956795BA95C9F70097610571058B
S1130BC008959B01AC010A2E0694579547953795D5
S1130BD02795BA95C9F7620F731F841F951FA01D2F
S1130BE008952F923F924F925F926F927F928F92CD
S1130BF09F92AF92BF92CF92DF92EF92FF920F93A8
S1130C001F93CF93DF93CDB7DEB7CA1BDB0B0FB6B1
S1130C10F894DEBF0FBECDBF09942A88398848886E
S1130C205F846E847D848C849B84AA84B984C88404
S1130C30DF80EE80FD800C811B81AA81B981CE0FFB
S1130C40D11D0FB6F894DEBF0FBECDBFED010895E0
S1070C50F894FFCF42
S1130C540A0D416E67756C6F3A2025660D0A000013
S9030000FC
