S012000061746D656761333238702E7372656396
S11300000C9434000C943E000C943E000C943E007E
S11300100C943E000C943E000C943E000C943E0064
S11300200C943E000C943E000C943E000C943E0054
S11300300C943E000C943E000C943E000C943E0044
S11300400C943E000C943E000C943E000C943E0034
S11300500C943E000C943E000C943E000C943E0024
S11300600C943E000C943E0011241FBECFEFD8E048
S1130070DEBFCDBF0E9440000C9471000C940000C0
S11300808AB180688AB987B18F6087B981E00E949C
S11300905200FDCF877019F081E090E0089580E070
S11300A090E00895CF93C82F88B92FE786E294E0B3
S11300B0215080409040E1F700C0000081E00E94A0
S11300C04A00892B29F48C2F880F803141F404C015
S11300D08C2F869519F003C081E001C088E0CF9190
S10900E00895F894FFCF1F
S9030000FC
