:100000000C9434000C943E000C943E000C943E0082
:100010000C943E000C943E000C943E000C943E0068
:100020000C943E000C943E000C943E000C943E0058
:100030000C943E000C943E000C943E000C943E0048
:100040000C943E000C943E000C943E000C943E0038
:100050000C943E000C943E000C943E000C943E0028
:100060000C943E000C943E0011241FBECFEFD8E04C
:10007000DEBFCDBF0E9440000C9414020C9400001F
:100080008AB180688AB987B18F6087B960E070E013
:10009000CB01C0E0D0E003C00E9474002196C115DE
:1000A00022E0D207CCF329E028B93FEF49E628E166
:1000B000315040402040E1F700C00000C0E0D0E0F7
:1000C00003C00E94E5002196C11532E0D307CCF3AE
:1000D00029E028B94FEF29E638E14150204030406F
:1000E000E1F700C00000D5CF29E028B920E030E0DA
:1000F00044E350E40E945701EFE1FEE43197F1F749
:1001000000C0000028E028B920E030E044E350E4DB
:100110000E945701EFE1FEE43197F1F700C00000C3
:100120002CE028B920E030E044E350E40E9457017D
:10013000EFE1FEE43197F1F700C0000024E028B9B8
:1001400020E030E044E350E40E945701EFE1FEE498
:100150003197F1F700C0000026E028B920E030E038
:1001600044E350E40E945701EFE1FEE43197F1F7D8
:1001700000C0000022E028B920E030E044E350E471
:100180000E945701EFE1FEE43197F1F700C0000053
:1001900023E028B920E030E044E350E40E94570116
:1001A000EFE1FEE43197F1F700C0000021E028B94B
:1001B00020E030E044E350E40E945701EFE1FEE428
:1001C0003197F1F700C00000089529E028B920E038
:1001D00030E044E350E40E945601EFE1FEE4319741
:1001E000F1F700C0000021E028B920E030E044E34E
:1001F00050E40E945601EFE1FEE43197F1F700C0B0
:10020000000023E028B920E030E044E350E40E94FD
:100210005601EFE1FEE43197F1F700C0000022E063
:1002200028B920E030E044E350E40E945601EFE1B9
:10023000FEE43197F1F700C0000026E028B920E085
:1002400030E044E350E40E945601EFE1FEE43197D0
:10025000F1F700C0000024E028B920E030E044E3DA
:1002600050E40E945601EFE1FEE43197F1F700C03F
:1002700000002CE028B920E030E044E350E40E9484
:100280005601EFE1FEE43197F1F700C0000028E0ED
:1002900028B920E030E044E350E40E945601EFE149
:1002A000FEE43197F1F700C0000008955058BB27D5
:1002B000AA270E946E010C94DA010E94CC0138F04A
:1002C0000E94D30120F039F49F3F19F426F40C94D6
:1002D000C9010EF4E095E7FB0C94C301E92F0E94DD
:1002E000EB0158F3BA17620773078407950720F0EC
:1002F00079F4A6F50C940D020EF4E0950B2EBA2FAE
:10030000A02D0B01B90190010C01CA01A00111241B
:10031000FF27591B99F0593F50F4503E68F11A16C7
:10032000F040A22F232F342F4427585FF3CF469558
:1003300037952795A795F0405395C9F77EF41F167A
:10034000BA0B620B730B840BBAF09150A1F0FF0F44
:10035000BB1F661F771F881FC2F70EC0BA0F621F30
:10036000731F841F48F4879577956795B795F79520
:100370009E3F08F0B0CF9395880F08F09927EE0FB5
:1003800097958795089597F99F6780E870E060E0FA
:1003900008959FEF80EC089500240A94161617061E
:1003A00018060906089500240A9412161306140666
:1003B00005060895092E0394000C11F4882352F0C9
:1003C000BB0F40F4BF2B11F460FF04C06F5F7F4F81
:1003D0008F4F9F4F089557FD9058440F551F59F068
:1003E0005F3F71F04795880F97FB991F61F09F3F22
:1003F00079F087950895121613061406551FF2CF4B
:100400004695F1DF08C0161617061806991FF1CF9A
:1004100086957105610508940895E894BB276627C1
:0C0420007727CB0197F90895F894FFCFDF
:00000001FF
