S012000061746D656761333238702E7372656396
S11300000C9434000C943E000C943E000C943E007E
S11300100C943E000C943E000C943E000C943E0064
S11300200C943E000C943E000C943E000C943E0054
S11300300C943E000C943E000C943E000C943E0044
S11300400C943E000C943E000C943E000C943E0034
S11300500C943E000C943E000C943E000C943E0024
S11300600C943E000C943E0011241FBECFEFD8E048
S1130070DEBFCDBF0E9440000C9470000C940000C1
S113008087B1806487B98FEF87B981E00E945100FE
S1130090FDCF867019F081E090E0089580E090E053
S11300A00895CF93C82F88B92FE786E294E02150B2
S11300B080409040E1F700C0000081E00E944900C8
S11300C0892B29F48C2F880F803141F404C08C2FA4
S11300D0869519F003C081E001C088E0CF910895AE
S10700E0F894FFCFBE
S9030000FC
